{
  "contractName": "PatentManager",
  "abi": [
    {
      "anonymous": false,
      "inputs": [
        {
          "indexed": false,
          "internalType": "uint256",
          "name": "id",
          "type": "uint256"
        },
        {
          "indexed": false,
          "internalType": "bytes32",
          "name": "hash",
          "type": "bytes32"
        },
        {
          "indexed": false,
          "internalType": "address",
          "name": "owner",
          "type": "address"
        }
      ],
      "name": "newPatent",
      "type": "event"
    },
    {
      "anonymous": false,
      "inputs": [
        {
          "indexed": false,
          "internalType": "uint256",
          "name": "id",
          "type": "uint256"
        },
        {
          "indexed": false,
          "internalType": "bytes32",
          "name": "oldHash",
          "type": "bytes32"
        },
        {
          "indexed": false,
          "internalType": "bytes32",
          "name": "newHash",
          "type": "bytes32"
        }
      ],
      "name": "patentChanged",
      "type": "event"
    },
    {
      "inputs": [
        {
          "internalType": "bytes32",
          "name": "_hash",
          "type": "bytes32"
        },
        {
          "internalType": "address",
          "name": "_owner",
          "type": "address"
        }
      ],
      "name": "addPatent",
      "outputs": [],
      "stateMutability": "payable",
      "type": "function",
      "payable": true
    },
    {
      "inputs": [
        {
          "internalType": "bytes32",
          "name": "_hash",
          "type": "bytes32"
        }
      ],
      "name": "getPatent",
      "outputs": [
        {
          "internalType": "address",
          "name": "",
          "type": "address"
        }
      ],
      "stateMutability": "view",
      "type": "function",
      "constant": true
    },
    {
      "inputs": [
        {
          "internalType": "bytes32",
          "name": "_newHash",
          "type": "bytes32"
        },
        {
          "internalType": "uint256",
          "name": "_id",
          "type": "uint256"
        }
      ],
      "name": "changePatent",
      "outputs": [],
      "stateMutability": "payable",
      "type": "function",
      "payable": true
    }
  ],
  "bytecode": "0x60806040526000805534801561001457600080fd5b50610a72806100246000396000f3fe6080604052600436106100345760003560e01c8063172b33c814610039578063d06e416814610076578063e0e4ec2b14610092575b600080fd5b34801561004557600080fd5b50610060600480360381019061005b9190610575565b6100ae565b60405161006d91906105e3565b60405180910390f35b610090600480360381019061008b9190610634565b6100eb565b005b6100ac60048036038101906100a791906106a0565b6102f9565b005b60006002600083815260200190815260200160002060009054906101000a900473ffffffffffffffffffffffffffffffffffffffff169050919050565b600066b1a2bc2ec5000090506001600083815260200190815260200160002060020160009054906101000a900473ffffffffffffffffffffffffffffffffffffffff1673ffffffffffffffffffffffffffffffffffffffff163373ffffffffffffffffffffffffffffffffffffffff161461019b576040517f08c379a000000000000000000000000000000000000000000000000000000000815260040161019290610763565b60405180910390fd5b8034146101dd576040517f08c379a00000000000000000000000000000000000000000000000000000000081526004016101d4906107f5565b60405180910390fd5b60006001600084815260200190815260200160002060010154905060006002600083815260200190815260200160002060006101000a81548173ffffffffffffffffffffffffffffffffffffffff021916908373ffffffffffffffffffffffffffffffffffffffff160217905550336002600086815260200190815260200160002060006101000a81548173ffffffffffffffffffffffffffffffffffffffff021916908373ffffffffffffffffffffffffffffffffffffffff1602179055508360016000858152602001908152602001600020600101819055507f1823c9db63c13f8f0e8923945080acf2eabb312365d1e8073f1294db8a60de528382866040516102eb93929190610833565b60405180910390a150505050565b60006702c68af0bb1400009050600073ffffffffffffffffffffffffffffffffffffffff166002600085815260200190815260200160002060009054906101000a900473ffffffffffffffffffffffffffffffffffffffff1673ffffffffffffffffffffffffffffffffffffffff16146103a8576040517f08c379a000000000000000000000000000000000000000000000000000000000815260040161039f906108dc565b60405180910390fd5b8034146103ea576040517f08c379a00000000000000000000000000000000000000000000000000000000081526004016103e19061096e565b60405180910390fd5b6000808154809291906103fc906109bd565b9190505550604051806060016040528060005481526020018481526020018373ffffffffffffffffffffffffffffffffffffffff168152506001600080548152602001908152602001600020600082015181600001556020820151816001015560408201518160020160006101000a81548173ffffffffffffffffffffffffffffffffffffffff021916908373ffffffffffffffffffffffffffffffffffffffff160217905550905050816002600085815260200190815260200160002060006101000a81548173ffffffffffffffffffffffffffffffffffffffff021916908373ffffffffffffffffffffffffffffffffffffffff1602179055507f5ef12abd6c2d8f6c3ae12d017d313074f6296f1a1167119594ec6d7361b392c8600054848460405161052d93929190610a05565b60405180910390a1505050565b600080fd5b6000819050919050565b6105528161053f565b811461055d57600080fd5b50565b60008135905061056f81610549565b92915050565b60006020828403121561058b5761058a61053a565b5b600061059984828501610560565b91505092915050565b600073ffffffffffffffffffffffffffffffffffffffff82169050919050565b60006105cd826105a2565b9050919050565b6105dd816105c2565b82525050565b60006020820190506105f860008301846105d4565b92915050565b6000819050919050565b610611816105fe565b811461061c57600080fd5b50565b60008135905061062e81610608565b92915050565b6000806040838503121561064b5761064a61053a565b5b600061065985828601610560565b925050602061066a8582860161061f565b9150509250929050565b61067d816105c2565b811461068857600080fd5b50565b60008135905061069a81610674565b92915050565b600080604083850312156106b7576106b661053a565b5b60006106c585828601610560565b92505060206106d68582860161068b565b9150509250929050565b600082825260208201905092915050565b7f6f6e6c7920746865206f776e6572206f662074686520706174656e742063616e60008201527f206d6f6469667920746865206861736800000000000000000000000000000000602082015250565b600061074d6030836106e0565b9150610758826106f1565b604082019050919050565b6000602082019050818103600083015261077c81610740565b9050919050565b7f6d6f64696679696e67206120506174656e74207265717569726573207061796960008201527f6e6720302e303520657468210000000000000000000000000000000000000000602082015250565b60006107df602c836106e0565b91506107ea82610783565b604082019050919050565b6000602082019050818103600083015261080e816107d2565b9050919050565b61081e816105fe565b82525050565b61082d8161053f565b82525050565b60006060820190506108486000830186610815565b6108556020830185610824565b6108626040830184610824565b949350505050565b7f746869732068617368206f6620646174612068617320616c726561647920626560008201527f656e20696e6a6563746564000000000000000000000000000000000000000000602082015250565b60006108c6602b836106e0565b91506108d18261086a565b604082019050919050565b600060208201905081810360008301526108f5816108b9565b9050919050565b7f616464696e67206120506174656e7420726571756972657320706179696e672060008201527f302e322065746821000000000000000000000000000000000000000000000000602082015250565b60006109586028836106e0565b9150610963826108fc565b604082019050919050565b600060208201905081810360008301526109878161094b565b9050919050565b7f4e487b7100000000000000000000000000000000000000000000000000000000600052601160045260246000fd5b60006109c8826105fe565b91507fffffffffffffffffffffffffffffffffffffffffffffffffffffffffffffffff82036109fa576109f961098e565b5b600182019050919050565b6000606082019050610a1a6000830186610815565b610a276020830185610824565b610a3460408301846105d4565b94935050505056fea2646970667358221220d740078669db122c00b6333854d0aded30108c8b4b634fcc4b71fceca9acf05164736f6c63430008130033",
  "immutableReferences": {},
  "source": "// SPDX-License-Identifier: MIT\r\npragma solidity ^0.8.0;\r\n\r\ncontract PatentManager {\r\n    \r\n    struct Patent {\r\n        uint256 id;     // id of patent        \r\n        bytes32 hash;   // Hash of the data\r\n        address owner;  // Owner's account\r\n    }\r\n\r\n    uint256 internal patentCount = 0;\r\n\r\n    mapping(uint256 => Patent) private patents;\r\n    mapping(bytes32 => address) private patentOwners;\r\n\r\n    // event: new patent added\r\n    event newPatent(uint256 id, bytes32 hash, address owner);\r\n\r\n    // event: patent hash changed\r\n    event patentChanged(uint256 id, bytes32 oldHash, bytes32 newHash);\r\n\r\n    /** \r\n     * @dev add new Patent, caller is required to pay 0.2 eth\r\n     * @param _hash hash of the data\r\n     * @param _owner owner of the patent (might be different from the caller)\r\n     */\r\n    function addPatent(bytes32 _hash, address _owner) public payable {\r\n\r\n        uint256 costToAdd = 0.2 ether;\r\n        require(\r\n            patentOwners[_hash] == address(0x0),\r\n            \"this hash of data has already been injected\"\r\n        );\r\n        require(\r\n            msg.value == costToAdd,\r\n            \"adding a Patent requires paying 0.2 eth!\"\r\n        );\r\n\r\n        // increment id\r\n        patentCount++;   \r\n        \r\n        // update patents map\r\n        patents[patentCount] = Patent({\r\n            id: patentCount,\r\n            hash: _hash,\r\n            owner: _owner\r\n        });\r\n\r\n        // update owners map\r\n        patentOwners[_hash] = _owner;\r\n\r\n        // emit event \r\n        emit newPatent(patentCount, _hash, _owner);\r\n    }\r\n\r\n    /** \r\n     * @dev check if hash of a patent exists\r\n     * @param _hash hash of the data\r\n     * @return return owner of the patent (if hash exists), null address otherwise (0x0)\r\n     */\r\n    function getPatent(bytes32 _hash) public view returns (address){\r\n        return patentOwners[_hash];\r\n    }\r\n\r\n    /** \r\n     * @dev change hash associated to a patent, only the owner has access\r\n     * @param _newHash hash of the modified data\r\n     * @param _id id of the patent of interest\r\n     */\r\n    function changePatent(bytes32 _newHash, uint256 _id) public payable {\r\n\r\n        uint256 costToMod = 0.05 ether;\r\n        require(\r\n            msg.sender == patents[_id].owner,\r\n            \"only the owner of the patent can modify the hash\"\r\n        );\r\n        require(\r\n            msg.value == costToMod,\r\n            \"modifying a Patent requires paying 0.05 eth!\"\r\n        );\r\n\r\n        bytes32 _oldHash = patents[_id].hash;\r\n\r\n        // update owners map\r\n        patentOwners[_oldHash] = address(0x0);  // old hash to owner is cleared\r\n        patentOwners[_newHash] = msg.sender;    // new hash to owner is set\r\n\r\n        // update patents map\r\n        patents[_id].hash = _newHash;    \r\n\r\n        // emit event\r\n        emit patentChanged(_id, _oldHash, _newHash);       \r\n    }\r\n}",
  "sourcePath": "C:\\Users\\Lorenzo\\Desktop\\ProgettoEthereumWeb3diLorenzoGiaretta\\contracts\\PatentManager.sol",
  "compiler": {
    "name": "solc",
    "version": "0.8.19+commit.7dd6d404.Emscripten.clang"
  },
  "schemaVersion": "3.4.13",
  "updatedAt": "2023-05-03T19:35:04.201Z",
  "networkType": "ethereum",
  "devdoc": {
    "kind": "dev",
    "methods": {
      "addPatent(bytes32,address)": {
        "details": "add new Patent, caller is required to pay 0.2 eth",
        "params": {
          "_hash": "hash of the data",
          "_owner": "owner of the patent (might be different from the caller)"
        }
      },
      "changePatent(bytes32,uint256)": {
        "details": "change hash associated to a patent, only the owner has access",
        "params": {
          "_id": "id of the patent of interest",
          "_newHash": "hash of the modified data"
        }
      },
      "getPatent(bytes32)": {
        "details": "check if hash of a patent exists",
        "params": {
          "_hash": "hash of the data"
        },
        "returns": {
          "_0": "return owner of the patent (if hash exists), null address otherwise (0x0)"
        }
      }
    },
    "version": 1
  },
  "userdoc": {
    "kind": "user",
    "methods": {},
    "version": 1
  }
}